:1000000002002E750900220000000002021100000B
:1000200000000000000000000000000202007581D6
:1000300036120117E582600302009A780079007A8F
:10004000007B007C007D00EC4D601C88828983E48D
:1000500093A3A882A9838A828B83F0A3AA82AB830D
:100060001CBCFFE31D80E07582007583007C007D71
:1000700000EC4D600AE4F0A31CBCFFF51D80F27596
:1000800082007583007C007D00EC4D600AE4F0A3E3
:100090001CBCFFF51D80F212000312039E80FE1BA4
:1000A0005B324A005661726961626C6520667265F6
:1000B0007175656E63792067656E657261746F72C4
:1000C00020666F72207468652045464D384C423179
:1000D0002E0D0A436865636B2070696E7320503281
:1000E0002E3020616E642050322E31207769746882
:1000F00020746865206F7363696C6C6F73636F70D5
:10010000652E0D0A00256400256409003C4E4F2031
:10011000464C4F41543E0075A7007597DE7597AD6C
:1001200043FF8075EF0275A71075C12075A7007594
:10013000A90075A900E5A930E7FB75A90375A90316
:10014000E5A930E7FB43A60343A41075E10175E27E
:100150001075E340759810858E8E758DE6858D8BB4
:1001600053890F438920D28ED299C28CC28D438E7F
:10017000045389F0438901758AF0758CF1D2A97511
:10018000C800438E1075CAEE75CBF675CEFF75CFDD
:10019000FFD2ADC2CAC28CD2AF75820022AA8243FE
:1001A0008E407592B87593FF85929485939575915D
:1001B000047B00C3EB9A5012E59130E7FB53917F2B
:1001C000108D028002050E0B80E975910022AA8233
:1001D000AB83BA0004BB0001227582F9C002C003E0
:1001E00012019D7582F912019D7582F912019D75AA
:1001F00082FA12019DD003D0021ABAFF011B80D2ED
:10020000C0D075D000C2CFB2A0A2A0B392A1D0D06E
:100210003275A700758AF0758CF1050B32C2CA9051
:10022000000A0201CED2CA90000A0201CEAA82AB15
:1002300083C3EA9408EB64809480400DC002C0033D
:10024000120225D003D002800BC002C00312021D8F
:10025000D003D002751608E4F5178A828B83C0029A
:10026000C003120524AC82AD83D003D002C3EC944A
:1002700004ED64809480400DC002C003120225D0BA
:1002800003D002800BC002C00312021DD003D002B3
:10029000751604E4F5178A828B83C002C003120529
:1002A00024AC82AD83D003D002C3EC9402ED648011
:1002B0009480400DC002C003120225D003D00280FA
:1002C0000BC002C00312021DD003D002751602E457
:1002D000F5178A828B83120524AA82AB83C3EA9422
:1002E00001EB64809480400302022502021DAA8271
:1002F000AB83C002C00312022512022512021DD0D8
:1003000003D002C3E49511E464808512F063F080A9
:1003100095F0500E12022585118285128312022D4E
:100320008012C002C00312021DD003D0028A828B49
:100330008312022DC3E49513E464808514F063F006
:100340008095F0500E1202258513828514831202C7
:100350002D800C12021D850F8285108312022D1232
:10036000021D12021D120225C2CA9000A00201CE77
:10037000AA82AB83C3E49AE464808BF063F0809537
:10038000F05015C002C00312022512021DD003D086
:10039000021ABAFFDF1B80DC12021D02021D749FCD
:1003A000C0E07400C0E07480C0E012050315811540
:1003B00081158174A4C0E07400C0E07480C0E012B4
:1003C0000503158115811581750C00C2CA7402B52B
:1003D0000C0B900002120370750C0080367403B58C
:1003E0000C0B900003120370750C0080267404B58A
:1003F0000C0B900004120370750C0080167405B588
:100400000C0B900005120370750C00800690000123
:100410001203702097B7D28C3097FDC28CAA0BE5DF
:100420000B3395E0FBC002C0037405C0E07401C04B
:10043000E07480C0E0120503E58124FBF5817414AB
:10044000B50B0280057415B50B03750C027411B55C
:100450000B0280057412B50B03750C037404B50B05
:100460000280057405B50B03750C047402B50B020C
:1004700080057401B50B03750C05AA0CE50C3395CA
:10048000E0FBC002C0037408C0E07401C0E07480E7
:10049000C0E0120503E58124FBF581750B00020322
:1004A000CDE516451760467A01E51625E0F516E517
:1004B00017334012F517E5829516E583951740032B
:1004C0000A80E6C3E51713F517E51613F516C3E51D
:1004D000829516F5F0E58395174005F58385F08242
:1004E000C3E51713F517E51613F516DAE122020B2B
:1004F0007A85823085833185F0328515339004EE1C
:100500000205E3C008858108E50824FBF533E5080A
:1005100024FBF886300886310886329004EE1205F6
:10052000E3D00822C2D5E58330E70DD2D5E4C395E8
:1005300082F582E49583F583E51730E70BE4C395F4
:1005400016F516E49517F5171204A130D50BE4C380
:100550009582F582E49583F58322AA82746BC0E0CC
:100560007405C0E0C022C0238A82220529E4B5298F
:1005700002052A22AA8274302AFA24C6500A740775
:100580002AFA3001034302208A8202055AE582FAE0
:10059000C4540FF582C002120574D002740F5AF5CC
:1005A00082020574AA24AB25AC26AD27AE28752F90
:1005B00020EE2EFEED235401FF4206EA2AFAEB3329
:1005C000FBEC33FCED33FDC3EE952B4008EEC395F9
:1005D0002BFE430201D52FD98A248B258C268D270B
:1005E0008E2822858222858323E4F529F52AAA30E4
:1005F000AB31AC328A828B838CF0120B8FFD74018D
:100600002AF530E43BF5318C32EDFA7003020B73BE
:10061000BA25028003020B6BC205C206C207C208DC
:10062000C209C20AC20BC20CC202C203C204752BA9
:1006300000752C00752DFFAB30AC31AD328B828C48
:10064000838DF0120B8FFAA3AB82AC838B308C318D
:100650008D32BA25078A8212055A80928A06BE30E8
:1006600000402E8A06EE24C6402774FFB52D13E500
:100670002C75F00AA4FEEA24D02EF52C70BFD20609
:1006800080BBE52D75F00AA4FEEA24D02EF52D805E
:10069000ACBA2E0A74FFB52DA4752D00809F8A0672
:1006A000BE6100400E8A06EE248540075302DFD269
:1006B000018002C201BA20028075BA230302073EFC
:1006C000BA2A03020743BA2B02805FBA2D02805573
:1006D000BA4202805FBA4303020788BA44030208A1
:1006E000C3BA45030208DDBA46030208D9BA470374
:1006F0000208E1BA49030208C3BA4C02803BBA4E71
:10070000030208E5BA4F030208CABA500302085CA4
:10071000BA53030207ACBA55030208CFBA58030212
:1007200008D402090FD20502063DD20702063DD2C7
:100730000802063DD20A02063DD20B02063DD20C4B
:1007400002063D74FFB52D20300A0BE53314F888FE
:1007500033862C02063DE53324FEF88833860608EE
:100760008607188E2C02063D300A0BE53314F888F4
:1007700033862D02063DE53324FEF88833860608CD
:100780008607188E2D02063D300A0AE53314F888D4
:10079000338602800FE53324FEF88833860308860B
:1007A00004188B028A8212055A020914E53324FDCB
:1007B000F88833860308860408860518188B248C6D
:1007C000258D268B828C838DF0120BC4AB82AC837B
:1007D0008B2E74FFB52D03852E2D20051DC3E52E10
:1007E000952C5016E52CC3952EF52CAB2C152CEB27
:1007F000600875822012055A80F185248285258340
:100800008526F0120B8FFBFA6029AB2D152DC3E462
:1008100064808BF063F08095F050188A8212055A3C
:10082000AB24AC25AD260BBB00010C8B248C258D95
:100830002680C7200503020914C3E52E952C40032A
:10084000020914E52CC3952EF52CAB2C152CEB705E
:100850000302091475822012055A80EEE53324FD47
:10086000F88833860308860408860518188B248CBC
:10087000258D26E526FB30E7047A438013EB546090
:1008800060047A50800AEB30E6047A4980027A5894
:100890008A82C00212055A75823A12055A75823050
:1008A00012055A75827812055AD002BA4902800B95
:1008B000BA5002800685258212058D852482120594
:1008C0008D8051D209752B0A804A752B0880457599
:1008D0002B0A8040752B10803BD2028037D20380D8
:1008E00033D204802FE53324FDF88833860308864D
:1008F0000408860518188B248C258D268B828C8302
:100900008DF0E529120BABA3E52A120BAB80058A0B
:100910008212055A20020620030330045AE53324CC
:10092000FCF88833860308860408860508860618BE
:1009300018188B248C258D268E2775240C7525017F
:100940007526808524348525358526367401253421
:10095000FEE43535FFAB368E248F258B2685348219
:100960008535838536F0120B8FFBFA70030205EE96
:100970008A8212055A80CCE52B70030205EE7B1D9E
:10098000300A2BE53314F88833E6FC3395E0FDFE9E
:10099000FF8C248D258E268F2720095EAC247D00B8
:1009A0007E007F008C248D258E268F27804C300B77
:1009B0001FE53324FCF8883386040886050886067C
:1009C0000886071818188C248D258E268F27802AD4
:1009D000E53324FEF88833860408860518ED339540
:1009E000E0FEFF8C248D258E268F2720090CAC2459
:1009F000AD257E007F008E268F27300C43E52445F1
:100A0000254526452760397408B52B0C758230C002
:100A10000312055AD00380287410B52B2375823039
:100A2000C00312055AD00330010C758278C003123E
:100A3000055AD003800A758258C00312055AD003A4
:100A4000300925AC24AD25AE26E527FF30E717C3D6
:100A5000E49CFCE49DFDE49EFEE49FFF8C248D2538
:100A60008E268F278002C209752E00D20D8B00754D
:100A70002800C0001205A4D000200D0DE528C4FCFC
:100A8000E6FD4CF61888038002A628052EB20DE577
:100A90002445254526452770D68803E52C70037527
:100AA0002C0120061A200517E52E04FCC3952C50B6
:100AB0000E758220C00312055AD003152C80E93030
:100AC000090E75822DC00312055AD003152C8024FF
:100AD000E52E602030070E75822BC00312055AD018
:100AE00003152C800F30080C758220C00312055AA4
:100AF000D003152C20051EAC2C152CC3E52E9C50C4
:100B0000273006047C3080027C208C82C0031205D2
:100B10005AD00380E2C3E52E952C5009E52CC395ED
:100B20002EF52C8003752C008B00AB2E152EEB6060
:100B300022B20D200D0A08E6C4540FFB8B28800753
:100B40008603740F5BF528852882C000120574D0D7
:100B50000080D72005030205EEAB2C152CEB7003AB
:100B60000205EE75822012055A80EE8A8212055A1D
:100B70000205EE852982852A8322AA82BA0A0810F4
:100B8000990280FB75990D10990280FB8A992220A9
:100B9000F71430F6148883A88220F507E6A8837539
:100BA000830022E280F7E49322E02220F71030F65F
:100BB000118883A88220F507F6A88375830022F2A6
:100BC00080F7F022AA82AB83ACF07D007E008A829F
:100BD0008B838CF0120B8FFFA3AA82AB83EF60078D
:100BE0000DBD00EA0E80E78D828E8322000000009A
:00000001FF
