:1000000002002E22000000000000000201CC0000CF
:1000200000000000000000000000000201C7758110
:1000300037120110E582600302009A780079007A95
:10004000007B007C007D00EC4D601C88828983E48D
:1000500093A3A882A9838A828B83F0A3AA82AB830D
:100060001CBCFFE31D80E07582007583007C007D71
:1000700000EC4D600AE4F0A31CBCFFF51D80F27596
:1000800082007583007C007D00EC4D600AE4F0A3E3
:100090001CBCFFF51D80F21200031202EF80FE1B54
:1000A0005B324A005661726961626C6520667265F6
:1000B0007175656E63792067656E657261746F72C4
:1000C00020666F72207468652045464D384C423179
:1000D0002E0D0A436865636B2070696E7320503281
:1000E0002E3020616E642050322E31207769746882
:1000F00020746865206F7363696C6C6F73636F70D5
:10010000652E0D0A003C4E4F20464C4F41543E0098
:1001100075A7007597DE7597AD43FF8075EF027583
:10012000A71075C12075A70075A90075A900E5A9DC
:1001300030E7FB75A90375A903E5A930E7FB43A6E2
:100140000143A41075E10175E21075E34075981044
:10015000858E8E758DE6858D8B53890F438920D2D0
:100160008ED299C28CC28D438E045389F04389018B
:10017000758AF0758CF1D2A975C800438E1075CAC6
:100180004D75CBFC75CEFF75CFFFD2ADC2CAC28C08
:10019000D2AF75820022AA82438E407592B87593C1
:1001A000FF8592948593957591047B00C3EB9A50DB
:1001B00012E59130E7FB53917F108D028002050913
:1001C0000B80E975910022C2CFB2A032C020C0E0FE
:1001D000C0F0C082C083C002C003C004C005C00616
:1001E000C007C000C001C0D075D00075A700758AD7
:1001F000F0758CF1050A7402B50C23741AB50A1E49
:1002000075C800750C00750A00C28CC2CAC2A07500
:1002100082C81201967582C8120196750E00740389
:10022000B50C2F7417B50A2A75C800750C00750A2D
:1002300000C28CC2CAC2A07582C81201967582C85B
:100240001201967582C81201967582641201967524
:100250000E007404B50C357414B50A3075C80075F9
:100260000C00750A00C28CC2CAC2A07582C81201F5
:10027000967582C81201967582C81201967582C859
:100280001201967582C8120196750E007405B50CA0
:10029000417411B50A3C75C800750C00750A00C29E
:1002A0008CC2CAC2A07582C81201967582C812019A
:1002B000967582C81201967582C81201967582C819
:1002C0001201967582C812019675826412019675A4
:1002D0000E00D0D0D001D000D007D006D005D00479
:1002E000D003D002D083D082D0F0D0E0D02032D260
:1002F000A1D2A2D2A3D2A4749FC0E07400C0E074C3
:1003000080C0E012038B15811581158174A4C0E0B3
:100310007400C0E07480C0E012038B158115811554
:1003200081C2CA20A110750C02750B00750A00D29B
:10033000CAD28C750E0120A210750C03750A0075C7
:100340000B00D2CAD28C750E0120A310750C047557
:100350000A00750B00D2CAD28C750E0120A410754C
:100360000C05750A00750B00D2CAD28C750E01748B
:1003700001B50EAF80F90209CC85823185833285C3
:10038000F033850F34900376020435C00885810868
:10039000E50824FBF534E50824FBF88631088632AD
:1003A000088633900376120435D00822AA8274BDE1
:1003B000C0E07403C0E0C023C0248A8222052AE47E
:1003C000B52A02052B22AA8274302AFA24C6500AC2
:1003D00074072AFA3008034302208A820203ACE53C
:1003E00082FAC4540FF582C0021203C6D002740F01
:1003F0005AF5820203C6AA25AB26AC27AD28AE2942
:10040000753020EE2EFEED235401FF4206EA2AFA53
:10041000EB33FBEC33FCED33FDC3EE952C4008EEE3
:10042000C3952CFE430201D530D98A258B268C2713
:100430008D288E2922858223858324E4F52AF52BB5
:10044000AA31AB32AC338A828B838CF01209E1FD86
:1004500074012AF531E43BF5328C33EDFA70030276
:1004600009C5BA250280030209BDC20CC20DC20E25
:10047000C20FC210C211C212C213C209C20AC20BF9
:10048000752C00752D00752EFFAB31AC32AD338B62
:10049000828C838DF01209E1FAA3AB82AC838B319D
:1004A0008C328D33BA25078A821203AC80928A0679
:1004B000BE3000402E8A06EE24C6402774FFB52EBB
:1004C00013E52D75F00AA4FEEA24D02EF52D70BF99
:1004D000D20D80BBE52E75F00AA4FEEA24D02EF5DD
:1004E0002E80ACBA2E0A74FFB52EA4752E00809F04
:1004F0008A06BE6100400E8A06EE2485400753023C
:10050000DFD2088002C208BA20028075BA23030233
:100510000590BA2A03020595BA2B02805FBA2D0214
:100520008055BA4202805FBA43030205DABA440337
:10053000020715BA450302072FBA460302072BBA72
:100540004703020733BA4903020715BA4C02803B3E
:10055000BA4E03020737BA4F0302071CBA50030210
:1005600006AEBA53030205FEBA5503020721BA5874
:1005700003020726020761D20C02048FD20E020486
:100580008FD20F02048FD21102048FD21202048F75
:10059000D21302048F74FFB52E2030110BE53414F2
:1005A000F88834862D02048FE53424FEF8883486DA
:1005B00006088607188E2D02048F30110BE53414BF
:1005C000F88834862E02048FE53424FEF8883486B9
:1005D00006088607188E2E02048F30110AE534149F
:1005E000F888348602800FE53424FEF888348603C8
:1005F000088604188B028A821203AC020766E5346F
:1006000024FDF88834860308860408860518188BAC
:10061000258C268D278B828C838DF0120A16AB8257
:10062000AC838B2F74FFB52E03852F2E200C1DC39A
:10063000E52F952D5016E52DC3952FF52DAB2D15D6
:100640002DEB60087582201203AC80F18525828530
:1006500026838527F01209E1FBFA6029AB2E152EBF
:10066000C3E464808BF063F08095F050188A8212A6
:1006700003ACAB25AC26AD270BBB00010C8B258C46
:10068000268D2780C7200C03020766C3E52F952D12
:100690004003020766E52DC3952FF52DAB2D152DD3
:1006A000EB70030207667582201203AC80EEE5341E
:1006B00024FDF88834860308860408860518188BFC
:1006C000258C268D27E527FB30E7047A438013EB42
:1006D000546060047A50800AEB30E6047A49800264
:1006E0007A588A82C0021203AC75823A1203AC7542
:1006F00082301203AC7582781203ACD002BA490280
:10070000800BBA500280068526821203DF8525827F
:100710001203DF8051D210752C0A804A752C088094
:1007200045752C0A8040752C10803BD2098037D249
:100730000A8033D20B802FE53424FDF888348603F9
:1007400008860408860518188B258C268D278B8231
:100750008C838DF0E52A1209FDA3E52B1209FD809B
:10076000058A821203AC200906200A03300B5AE5E1
:100770003424FCF888348603088604088605088635
:10078000061818188B258C268D278E28752505753B
:1007900026017527808525358526368527377401FE
:1007A0002535FEE43536FFAB378E258F268B278522
:1007B00035828536838537F01209E1FBFA70030232
:1007C00004408A821203AC80CCE52C700302044002
:1007D0007B1630112BE53414F88834E6FC3395E0B1
:1007E000FDFEFF8C258D268E278F2820105EAC25E0
:1007F0007D007E007F008C258D268E278F28804CE3
:1008000030121FE53424FCF8883486040886050875
:1008100086060886071818188C258D268E278F289F
:10082000802AE53424FEF88834860408860518ED0D
:100830003395E0FEFF8C258D268E278F2820100C07
:10084000AC25AD267E007F008E278F28301343E530
:100850002545264527452860397408B52C0C758236
:1008600030C0031203ACD00380287410B52C23755C
:100870008230C0031203ACD00330080C758278C0FC
:10088000031203ACD003800A758258C0031203AC74
:10089000D003301025AC25AD26AE27E528FF30E784
:1008A00017C3E49CFCE49DFDE49EFEE49FFF8C25C1
:1008B0008D268E278F288002C210752F00D2148BB0
:1008C00000752900C0001203F6D00020140DE529A0
:1008D000C4FCE6FD4CF61888038002A629052FB259
:1008E00014E52545264527452870D68803E52D7053
:1008F00003752D01200D1A200C17E52F04FCC3955C
:100900002D500E758220C0031203ACD003152D802C
:10091000E930100E75822DC0031203ACD003152DE3
:100920008024E52F6020300E0E75822BC003120349
:10093000ACD003152D800F300F0C758220C0031230
:1009400003ACD003152D200C1EAC2D152DC3E52FA7
:100950009C5027300D047C3080027C208C82C003A8
:100960001203ACD00380E2C3E52F952D5009E52D8D
:10097000C3952FF52D8003752D008B00AB2F152F00
:10098000EB6022B21420140A08E6C4540FFB8B2932
:1009900080078603740F5BF529852982C000120346
:1009A000C6D00080D7200C03020440AB2D152DEBE0
:1009B00070030204407582201203AC80EE8A82121A
:1009C00003AC020440852A82852B8322AA82BA0ABC
:1009D0000810990280FB75990D10990280FB8A9985
:1009E0002220F71430F6148883A88220F507E6A8A1
:1009F0008375830022E280F7E49322E02220F7103F
:100A000030F6118883A88220F507F6A88375830045
:100A100022F280F7F022AA82AB83ACF07D007E0048
:100A20008A828B838CF01209E1FFA3AA82AB83EF49
:100A300060070DBD00EA0E80E78D828E83220000E4
:00000001FF
