:1000000002002E2563003C4E4F20464C4F41543E8B
:1000100000750A002200000000000000000000003F
:100020000000000000000000000000020177758160
:100030003612009FE582600302009A780079007A08
:10004000007B007C007D00EC4D601C88828983E48D
:1000500093A3A882A9838A828B83F0A3AA82AB830D
:100060001CBCFFE31D80E07582007583007C007D71
:1000700000EC4D600AE4F0A31CBCFFF51D80F27596
:1000800082007583007C007D00EC4D600AE4F0A3E3
:100090001CBCFFF51D80F212001112027380FE7568
:1000A000A7007597DE7597AD43FF8075EF0275A7C2
:1000B0001075C12075A70075A90075A900E5A930C4
:1000C000E7FB75A90375A903E5A930E7FB75A41D36
:1000D00075E10375E20075E340759810858E8E75A5
:1000E0008DE6858D8B53890F438920D28ED29975E9
:1000F000C800438E1075CAEE75CBF675CEFF75CF6E
:10010000FFD2ADD2CAD2AF75A22375A14075F80156
:1001100075820022AA82438E407592B87593FF853E
:1001200092948593957591047B00C3EB9A5012E5E8
:100130009130E7FB53917F108D02800205090B80FF
:10014000E975910022AA82AB83BA0004BB000122A8
:100150007582F9C002C0031201147582F9120114EC
:100160007582F91201147582FA120114D003D002BB
:100170001ABAFF011B80D2C0D075D000C2CFB2A086
:10018000A2A0B392A1D0D032AA82C2838AA310FFC8
:100190000280FBD28385A3822275A70075B2807589
:1001A000BCF875B91E75E80075DF3F75B300D2EF76
:1001B00022AA82850CF005F07401800225E0D5F0BA
:1001C000FBFB75A720BA0002800ABA0102800FBAB1
:1001D000021E8014EBF4FA52F1EB42D48012EBF4DD
:1001E000FA52F2EB42D58008EBF4FA52F3EB42CC30
:1001F00075A700228582BBD2EC20ECFDD2EC20EC6E
:10020000FD85BD8285BE83221201F41202B1AA824D
:10021000AB83ACF0FDC002C003C004C005906C8B82
:1002200075F05374401202BDAA82AB83ACF0FDE5B9
:100230008124FCF581E4C0E074FCC0E0747FC0E080
:100240007446C0E08A828B838CF0ED120396AA82FA
:10025000AB83ACF0FDE58124FCF5818A828B838C35
:10026000F0ED22C2CA900005020145D2CA900005F5
:10027000020145C2CAD283C2A075822012018875CC
:100280008203120188D2A075826112018885820AD8
:10029000C2A0AA0A7B00C002C0037403C0E07400BD
:1002A000C0E07480C0E0120375E58124FBF5818015
:1002B000C8E4AC83AB82FAF9748E0204BE12054A1C
:1002C000BC00030204E9EF60FA30D502B2D1E58345
:1002D000B4FF030204FFE582B4FF030204FF258399
:1002E00040072482400B0204E924831450030204D3
:1002F000FFF582EA8DF0A4A8F0EA8EF0A428F8E4D5
:1003000035F0F9EB8DF0A428E935F0F9E433CA8F24
:10031000F0A429F9EA35F0FAEBF88EF0A429F9EA0D
:1003200035F0FAE433FBEC8DF0A429F9EA35F0FA64
:10033000E43BFBE88FF0A42AFAEB35F0FBE433CC86
:10034000FD8EF0A42AFAEB35F0FBE43CFCED8FF0D7
:10035000A42BFBEC35F0FC20E7031205170204C8C0
:10036000020B9885823085833185F032850B33907E
:100370000360020601C008858108E50824FBF53307
:10038000E50824FBF8863008863108863290036041
:10039000120601D0082212054A30D502B2D1BF00A0
:1003A00009BC000302050C0204FFBC00030204E9BF
:1003B000E583B4FF0BE582B4FF0302050C0204E9F8
:1003C000E582B4FF030204FFC395835007247F40F6
:1003D0000B0204E924801450030204FFC0E0E4CCC3
:1003E000CBCAF98D0C8E0D8F0EEF54F0C4F50F753E
:1003F0008306850FF0EB84F582E9C4F9EAC4FAEBD1
:10040000C4FBEC540FC47803D6FC18EBD6FB18EAF7
:10041000D6FA8582F0EDA4A8F0FD8582F0EEA4283E
:10042000FEE435F0F88582F0EFA428FFE435F0F81B
:10043000E99DF9EA9EFAEB9FFBEC98FCAD0CAE0D42
:10044000AF0E30E7101582E92DF9EA3EFAEB3FFBDB
:10045000E43CFC80EDC082D58398C3E933F9EA33EC
:10046000FAEB33FBEC33FCC3E99DEA9EEB9FEC9483
:1004700000B3E413F9D002D0E0C44AFAD003D0E0CC
:10048000C44BFBD004D0E0F5F0540FC44CFCD08238
:10049000158230F40FD3EC13FCEB13FBEA13FAE9EB
:1004A00013F90582E930E70A74012AFAE43BFBE418
:1004B0003CFC0204E0FCABF0AA83A982749EC2D18A
:1004C000F5821205170204C8B98003EA13B340107D
:1004D000EA2401FAE43BFBE43CFC50047C80058206
:1004E000BC000EBB000BBA0008E4F5F0F583F58202
:1004F00022A2D1E582138CF092F78B838A8222E4C8
:10050000F583F58275F080F4A2D11322E4F583F52A
:100510008275F0C0747F227804EC7011E58224F8B3
:10052000500AF582E4C9CACBFCD8EF22EC7820054A
:100530008220E713D5820122C3E933F9EA33FAEBCB
:1005400033FBEC33FCD8EA158222AA82AB83A2F7F4
:100550003392D16002D2F7F582ACF0E58124F9F84C
:10056000E6FD08E6FE0886F008E6A2F73392D560BD
:1005700002D2F7F583AFF022AA827489C0E0740535
:10058000C0E0C022C0238A82220529E4B5290205E1
:100590002A22AA8274302AFA24C6500A74072AFA38
:1005A0003001034302208A82020578E582FAC454AE
:1005B0000FF582C002120592D002740F5AF5820222
:1005C0000592AA24AB25AC26AD27AE28752F20EEC8
:1005D0002EFEED235401FF4206EA2AFAEB33FBEC30
:1005E00033FCED33FDC3EE952B4008EEC3952BFE97
:1005F000430201D52FD98A248B258C268D278E285E
:1006000022858222858323E4F529F52AAA30AB319D
:10061000AC328A828B838CF0120BADFD74012AF50B
:1006200030E43BF5318C32EDFA7003020B91BA25C0
:10063000028003020B89C205C206C207C208C209B2
:10064000C20AC20BC20CC202C203C204752B0075DF
:100650002C00752DFFAB30AC31AD328B828C838D8D
:10066000F0120BADFAA3AB82AC838B308C318D32A0
:10067000BA25078A8212057880928A06BE30004029
:100680002E8A06EE24C6402774FFB52D13E52C757F
:10069000F00AA4FEEA24D02EF52C70BFD20680BB4F
:1006A000E52D75F00AA4FEEA24D02EF52D80ACBA13
:1006B0002E0A74FFB52DA4752D00809F8A06BE6199
:1006C00000400E8A06EE248540075302DFD20180E7
:1006D00002C201BA20028075BA230302075CBA2A5B
:1006E00003020761BA2B02805FBA2D028055BA421D
:1006F00002805FBA43030207A6BA44030208E1BAC4
:1007000045030208FBBA46030208F7BA470302088A
:10071000FFBA49030208E1BA4C02803BBA4E030219
:100720000903BA4F030208E8BA500302087ABA5321
:10073000030207CABA55030208EDBA58030208F2C9
:1007400002092DD20502065BD20702065BD208021F
:10075000065BD20A02065BD20B02065BD20C0206D3
:100760005B74FFB52D20300A0BE53314F88833860F
:100770002C02065BE53324FEF888338606088607DC
:10078000188E2C02065B300A0BE53314F88833868A
:100790002D02065BE53324FEF888338606088607BB
:1007A000188E2D02065B300A0AE53314F88833866A
:1007B00002800FE53324FEF8883386030886041888
:1007C0008B028A82120578020932E53324FDF8880B
:1007D00033860308860408860518188B248C258D1B
:1007E000268B828C838DF0120BE2AB82AC838B2E36
:1007F00074FFB52D03852E2D20051DC3E52E952CE8
:100800005016E52CC3952EF52CAB2C152CEB60085F
:1008100075822012057880F18524828525838526BE
:10082000F0120BADFBFA6029AB2D152DC3E46480EB
:100830008BF063F08095F050188A82120578AB2413
:10084000AC25AD260BBB00010C8B248C258D26809E
:10085000C7200503020932C3E52E952C4003020987
:1008600032E52CC3952EF52CAB2C152CEB70030226
:10087000093275822012057880EEE53324FDF88870
:1008800033860308860408860518188B248C258D6A
:1008900026E526FB30E7047A438013EB54606004BE
:1008A0007A50800AEB30E6047A4980027A588A82CC
:1008B000C00212057875823A1205787582301205E9
:1008C00078758278120578D002BA4902800BBA5046
:1008D0000280068525821205AB8524821205AB8035
:1008E00051D209752B0A804A752B088045752B0A51
:1008F0008040752B10803BD2028037D2038033D2E8
:1009000004802FE53324FDF8883386030886040825
:10091000860518188B248C258D268B828C838DF070
:10092000E529120BC9A3E52A120BC980058A821298
:10093000057820020620030330045AE53324FCF82E
:100940008833860308860408860508860618181862
:100950008B248C258D268E277524067525007526FB
:100960008085243485253585263674012534FEE4BA
:100970003535FFAB368E248F258B26853482853521
:10098000838536F0120BADFBFA700302060C8A82E7
:1009900012057880CCE52B700302060C7B15300A1B
:1009A0002BE53314F88833E6FC3395E0FDFEFF8C2D
:1009B000248D258E268F2720095EAC247D007E00A5
:1009C0007F008C248D258E268F27804C300B1FE5D1
:1009D0003324FCF8883386040886050886060886D2
:1009E000071818188C248D258E268F27802AE5332A
:1009F00024FEF88833860408860518ED3395E0FE5A
:100A0000FF8C248D258E268F2720090CAC24AD2544
:100A10007E007F008E268F27300C43E52445254538
:100A200026452760397408B52B0C758230C0031237
:100A30000578D00380287410B52B23758230C0034D
:100A4000120578D00330010C758278C00312057846
:100A5000D003800A758258C003120578D00330098C
:100A600025AC24AD25AE26E527FF30E717C3E49C6F
:100A7000FCE49DFDE49EFEE49FFF8C248D258E26E4
:100A80008F278002C209752E00D20D8B00752800B9
:100A9000C0001205C2D000200D0DE528C4FCE6FD03
:100AA0004CF61888038002A628052EB20DE52445D1
:100AB000254526452770D68803E52C7003752C0143
:100AC00020061A200517E52E04FCC3952C500E7540
:100AD0008220C003120578D003152C80E930090E5E
:100AE00075822DC003120578D003152C8024E52EC5
:100AF000602030070E75822BC003120578D00315D5
:100B00002C800F30080C758220C003120578D003AA
:100B1000152C20051EAC2C152CC3E52E9C5027301F
:100B200006047C3080027C208C82C003120578D0C1
:100B30000380E2C3E52E952C5009E52CC3952EF5D4
:100B40002C8003752C008B00AB2E152EEB6022B28F
:100B50000D200D0A08E6C4540FFB8B28800786037E
:100B6000740F5BF528852882C000120592D00080A2
:100B7000D720050302060CAB2C152CEB70030206E4
:100B80000C75822012057880EE8A821205780206A2
:100B90000C852982852A8322AA82BA0A0810990222
:100BA00080FB75990D10990280FB8A992220F71419
:100BB00030F6148883A88220F507E6A883758300A1
:100BC00022E280F7E49322E02220F71030F6118829
:100BD00083A88220F507F6A88375830022F280F7A8
:100BE000F022AA82AB83ACF07D007E008A828B83E8
:100BF0008CF0120BADFFA3AA82AB83EF60070DBD93
:100C000000EA0E80E78D828E832200000000000043
:00000001FF
