:1000000002002E220000000000000000000000009E
:100020000000000000000000000000020171758166
:100030002012009FE582600302009A780079007A1E
:10004000007B007C007D00EC4D601C88828983E48D
:1000500093A3A882A9838A828B83F0A3AA82AB830D
:100060001CBCFFE31D80E07582007583007C007D71
:1000700000EC4D600AE4F0A31CBCFFF51D80F27596
:1000800082007583007C007D00EC4D600AE4F0A3E3
:100090001CBCFFF51D80F21200031203CD80FE751B
:1000A000A7007597DE7597AD43FF8075EF0275A7C2
:1000B0001075C12075A70075A90075A900E5A930C4
:1000C000E7FB75A90375A903E5A930E7FB43A60380
:1000D00043A41075E10175E21075E3407598108531
:1000E0008E8E758DE6858D8B53890F438920D28E38
:1000F000D29975C800438E1075CAEE75CBF675CED1
:10010000FF75CFFFD2ADD2CAD2AF75820022AA82CC
:10011000438E407592B87593FF859294859395753B
:1001200091047B00C3EB9A5012E59130E7FB5391A9
:100130007F108D02800205080B80E975910022AACC
:1001400082AB83BA0004BB0001227582F9C002C0F1
:100150000312010E7582F912010E7582F912010E59
:100160007582FA12010ED003D0021ABAFF011B8069
:10017000D2C0D075D000C2CFB2A0A2A0B392A1D0FD
:10018000D03275A70075B28075BCF875B91E75E8D8
:100190000075DF3F75B300D2EF22AA828513F00508
:1001A000F07401800225E0D5F0FBFB75A720BA00B2
:1001B00002800ABA0102800FBA021E8014EBF4FA20
:1001C00052F1EB42D48012EBF4FA52F2EB42D580BA
:1001D00008EBF4FA52F3EB42CC75A700228582BB00
:1001E000D2EC20ECFDD2EC20ECFD85BD8285BE83F7
:1001F000221201DD120688AA82AB83ACF0FDC00298
:10020000C003C004C005906C8B75F0537440120796
:1002100041AA82AB83ACF0FDE58124FCF581E4C00A
:10022000E074FCC0E0747FC0E07446C0E08A828B5A
:10023000838CF0ED12081AAA82AB83ACF0FDE58145
:1002400024FCF5818A828B838CF0ED22C2CA900057
:100250000A02013FD2CA90000A02013FAA82AB8380
:10026000C3EA9408EB64809480400DC002C003127E
:100270000254D003D002800BC002C00312024CD043
:1002800003D002751308E4F5148A828B83C002C080
:10029000031207E4AC82AD83D003D002C3EC940414
:1002A000ED64809480400DC002C003120254D0035C
:1002B000D002800BC002C00312024CD003D00275E2
:1002C0001304E4F5148A828B83C002C0031207E48E
:1002D000AC82AD83D003D002C3EC9402ED64809471
:1002E00080400DC002C003120254D003D002800B24
:1002F000C002C00312024CD003D002751302E4F511
:10030000148A828B831207E4AA82AB83C3EA940126
:10031000EB64809480400302025402024CAA82AB38
:1003200083C002C00312025412025412024CD003C2
:10033000D002C3E4950BE46480850CF063F08095F3
:10034000F0500E120254850B82850C8312025C80E1
:1003500012C002C00312024CD003D0028A828B83E7
:1003600012025CC3E4950DE46480850EF063F080B6
:1003700095F0500E120254850D82850E8312025C98
:10038000800C12024C850982850A8312025C1202DB
:100390004C12024C120254C2CA9000A002013FAAA1
:1003A00082AB83C3E49AE464808BF063F08095F0C1
:1003B0005015C002C00312025412024CD003D002E6
:1003C0001ABAFFDF1B80DC12024C02024C120182BF
:1003D00075130175820012019A751302758200125D
:1003E000019A75CAEE75CBF6C2CA7582011201F187
:1003F00085820F85831085F011F512758200120138
:10040000F1AE82AF83A8F0F9C006C007C000C001FA
:10041000743DC0E0740AC0E074D7C0E0743FC0E02F
:10042000850F828510838511F0E512120694AA8249
:10043000E58124FCF581D001D000D007D006EA6028
:1004400071C006C007C000C0017471C0E0743DC037
:10045000E074CAC0E0743FC0E08E828F8388F0E908
:10046000120694AA82E58124FCF581D001D000D047
:1004700007D006EA603CC006C007C000C00174CDCA
:10048000C0E074CCC0E0C0E0743FC0E08E828F83D7
:1004900088F0E9120711AA82E58124FCF581D001D8
:1004A000D000D007D006EA600990000212039F0234
:1004B00003EAC006C007C000C00174E1C0E0747A5E
:1004C000C0E074D4C0E0743FC0E0850F8285108323
:1004D0008511F0E512120711AA82E58124FCF5814D
:1004E000D001D000D007D006EA6071C006C007C0B6
:1004F00000C0017471C0E0743DC0E074CAC0E07413
:100500003FC0E08E828F8388F0E9120694AA82E5CC
:100510008124FCF581D001D000D007D006EA603CF0
:10052000C006C007C000C00174CDC0E074CCC0E0FC
:10053000C0E0743FC0E08E828F8388F0E91207111B
:10054000AA82E58124FCF581D001D000D007D00635
:10055000EA600990000312039F0203EAC006C00785
:10056000C000C001743DC0E0740AC0E074D7C0E0B0
:10057000743FC0E0850F828510838511F0E512126B
:100580000711AA82E58124FCF581D001D000D007B3
:10059000D006EA7003020617C002C006C007C000FA
:1005A000C00174E1C0E0747AC0E074D4C0E0743F6C
:1005B000C0E0850F828510838511F0E51212069444
:1005C000AB82E58124FCF581D001D000D007D006B4
:1005D000D002EB6042C002C006C007C000C0017478
:1005E00071C0E0743DC0E074CAC0E0743FC0E08EEA
:1005F000828F8388F0E9120711AB82E58124FCF534
:1006000081D001D000D007D006D002EB6009900065
:100610000412039F0203EAEA6065C006C007C00037
:10062000C00174E1C0E0747AC0E074D4C0E0743FEB
:10063000C0E0850F828510838511F0E512120694C3
:10064000AA82E58124FCF581D001D000D007D00634
:10065000EA602C74CDC0E074CCC0E0C0E0743FC050
:10066000E08E828F8388F0E9120694AA82E58124C5
:10067000FCF581EA600990000512039F0203EA90ED
:10068000000112039F0203EAE4AC83AB82FAF9741F
:100690008E020942FFA881181812096AD2D133E6E6
:1006A000400730E70B7582012220E70675820022A1
:1006B000C2D112094CE97003F5822230D101B3E4B2
:1006C00033F58222E513451460467A01E51325E0EF
:1006D000F513E514334012F514E5829513E583957F
:1006E0001440030A80E6C3E51413F514E51313F56B
:1006F00013C3E5829513F5F0E58395144005F58362
:1007000085F082C3E51413F514E51313F513DAE14C
:1007100022FFA881181812096AD2D133E6400730A7
:10072000E70B7582002220E70675820122C2D112F2
:10073000094CE97003F5822220D101B3E433F5823C
:1007400022120A17BC00030209B6EF60FA30D50284
:10075000B2D1E583B4FF030209CCE582B4FF030202
:1007600009CC258340072482400B0209B624831458
:1007700050030209CCF582EA8DF0A4A8F0EA8EF0CD
:10078000A428F8E435F0F9EB8DF0A428E935F0F968
:10079000E433CA8FF0A429F9EA35F0FAEBF88EF0C9
:1007A000A429F9EA35F0FAE433FBEC8DF0A429F939
:1007B000EA35F0FAE43BFBE88FF0A42AFAEB35F0D7
:1007C000FBE433CCFD8EF0A42AFAEB35F0FBE43CDD
:1007D000FCED8FF0A42BFBEC35F0FC20E7031209B5
:1007E000E4020995C2D5E58330E70DD2D5E4C3957F
:1007F00082F582E49583F583E51430E70BE4C39535
:1008000013F513E49514F5141206C430D50BE4C3A4
:100810009582F582E49583F58322120A1730D5027A
:10082000B2D1BF0009BC00030209D90209CCBC0047
:10083000030209B6E583B4FF0BE582B4FF030209A6
:10084000D90209B6E582B4FF030209CCC3958350EF
:1008500007247F400B0209B624801450030209CC00
:10086000C0E0E4CCCBCAF98D138E148F15EF54F091
:10087000C4F5167583068516F0EB84F582E9C4F994
:10088000EAC4FAEBC4FBEC540FC47803D6FC18EBB3
:10089000D6FB18EAD6FA8582F0EDA4A8F0FD858291
:1008A000F0EEA428FEE435F0F88582F0EFA428FFEE
:1008B000E435F0F8E99DF9EA9EFAEB9FFBEC98FC31
:1008C000AD13AE14AF1530E7101582E92DF9EA3EED
:1008D000FAEB3FFBE43CFC80EDC082D58398C3E992
:1008E00033F9EA33FAEB33FBEC33FCC3E99DEA9EC0
:1008F000EB9FEC9400B3E413F9D002D0E0C44AFAC1
:10090000D003D0E0C44BFBD004D0E0F5F0540FC4CA
:100910004CFCD082158230F40FD3EC13FCEB13FBAC
:10092000EA13FAE913F90582E930E70A74012AFAB1
:10093000E43BFBE43CFC0209ADFCABF0AA83A982DA
:10094000749EC2D1F5821209E40209957901AA8246
:10095000E68F82B5821318E6B5F00E18E6B5830966
:1009600018E68A82B58202790022B4800FE5F07021
:100970000AE5837006E58270027F00EFB6801518E5
:10098000B6001018B6000B18B60006080808760066
:100990002208080822B98003EA13B34010EA2401B0
:1009A000FAE43BFBE43CFC50047C800582BC000E76
:1009B000BB000BBA0008E4F5F0F583F58222A2D162
:1009C000E582138CF092F78B838A8222E4F583F51B
:1009D0008275F080F4A2D11322E4F583F58275F0DC
:1009E000C0747F227804EC7011E58224F8500AF577
:1009F00082E4C9CACBFCD8EF22EC7820058220E73C
:100A000013D5820122C3E933F9EA33FAEB33FBEC65
:100A100033FCD8EA158222AA82AB83A2F73392D1A3
:100A20006002D2F7F582ACF0E58124F9F8E6FD0822
:100A3000E6FE0886F008E6A2F73392D56002D2F708
:100A4000F583AFF02200000000000000000000006D
:00000001FF
