:1000000002002E22000000000000000201C60000D5
:1000200000000000000000000000000201C1758116
:100030003612013BE582600302009A780079007A6B
:10004000007B007C007D00EC4D601C88828983E48D
:1000500093A3A882A9838A828B83F0A3AA82AB830D
:100060001CBCFFE31D80E07582007583007C007D71
:1000700000EC4D600AE4F0A31CBCFFF51D80F27596
:1000800082007583007C007D00EC4D600AE4F0A3E3
:100090001CBCFFF51D80F212000312023B80FE1B08
:1000A0005B324A005661726961626C6520667265F6
:1000B0007175656E63792067656E657261746F72C4
:1000C00020666F72207468652045464D384C423179
:1000D0002E0D0A436865636B2070696E7320503281
:1000E0002E3020616E642050322E31207769746882
:1000F00020746865206F7363696C6C6F73636F70D5
:10010000652E0D0A00256400436F6D6D616E6431CC
:100110000A00436F6D6D616E64320A00436F6D6D4E
:10012000616E64330A00436F6D6D616E64340A0062
:100130003C4E4F20464C4F41543E0075A7007597EA
:10014000DE7597AD43FF8075EF0275A71075C1206E
:1001500075A70075A90075A900E5A930E7FB75A989
:100160000375A903E5A930E7FB43A60143A4107575
:10017000E10175E21075E340759810858E8E758DDE
:10018000E6858D8B53890F438920D28ED299C28CFC
:10019000C28D438E045389F0438901758AF0758CB2
:1001A000F1D2A975C800438E1075CA4D75CBFC7588
:1001B000CEFF75CFFFD2ADC2CAC28CD2AF7582005E
:1001C00022C2CFB2A032C0E0C0D075D00075A70067
:1001D000758AF0758CF10509050A7402B50B127465
:1001E0001AB5090D75C800750B00750900C28CC2DF
:1001F000CA7403B50B127417B5090D75C800750BD9
:1002000000750900C28CC2CA7404B50B127414B50F
:10021000090D75C800750B00750900C28CC2CA743F
:1002200005B50B127411B5090D75C800750B007575
:100230000900C28CC2CAD0D0D0E032D2A1D2A2D2A0
:10024000A3D2A4749FC0E07400C0E07480C0E01228
:10025000039F15811581158174A4C0E07400C0E06E
:100260007480C0E012039F158115811581C2CA20D8
:10027000A10D750B02750A00750900D2CAD28C2037
:10028000A20D750B03750900750A00D2CAD28C2025
:10029000A30D750B04750900750A00D2CAD28C2013
:1002A000A40D750B05750900750A00D2CAD28C2001
:1002B00097BD3097FDC28CAA0AE50A3395E0FBC0D2
:1002C00002C0037405C0E07401C0E07480C0E01295
:1002D000039FE58124FBF581C3749B850AF063F0DD
:1002E0008095F0401DE50A6480949940157408C01B
:1002F000E07401C0E07480C0E012039F1581158195
:100300001581C37498850AF063F08095F0401DE56F
:100310000A6480949640157412C0E07401C0E074C1
:1003200080C0E012039F158115811581C3749585E6
:100330000AF063F08095F0401DE50A6480949340D4
:1003400015741CC0E07401C0E07480C0E012039F0B
:10035000158115811581C37492850AF063F080952B
:10036000F0500302026FC3E50A64809490500302C8
:10037000026F7426C0E07401C0E07480C0E0120314
:100380009F15811581158102026F0209E085823077
:1003900085833185F032850D3390038A020449C08C
:1003A00008858108E50824FBF533E50824FBF88679
:1003B0003008863108863290038A120449D0082218
:1003C000AA8274D1C0E07403C0E0C022C0238A8234
:1003D000220529E4B52902052A22AA8274302AFAC4
:1003E00024C6500A74072AFA3000034302208A8286
:1003F0000203C0E582FAC4540FF582C0021203DA88
:10040000D002740F5AF5820203DAAA24AB25AC2677
:10041000AD27AE28752F20EE2EFEED235401FF42AE
:1004200006EA2AFAEB33FBEC33FCED33FDC3EE9521
:100430002B4008EEC3952BFE430201D52FD98A2409
:100440008B258C268D278E2822858222858323E486
:10045000F529F52AAA30AB31AC328A828B838CF035
:100460001209F5FD74012AF530E43BF5318C32EDCB
:10047000FA70030209D9BA250280030209D1C20425
:10048000C205C206C207C208C209C20AC20BC20123
:10049000C202C203752B00752C00752DFFAB30AC6A
:1004A00031AD328B828C838DF01209F5FAA3AB82C9
:1004B000AC838B308C318D32BA25078A821203C00F
:1004C00080928A06BE3000402E8A06EE24C640275F
:1004D00074FFB52D13E52C75F00AA4FEEA24D02E86
:1004E000F52C70BFD20580BBE52D75F00AA4FEEA9D
:1004F00024D02EF52D80ACBA2E0A74FFB52DA4752C
:100500002D00809F8A06BE6100400E8A06EE24857B
:1005100040075302DFD2008002C200BA2002807579
:10052000BA23030205A4BA2A030205A9BA2B028042
:100530005FBA2D028055BA4202805FBA43030205BA
:10054000EEBA4403020729BA4503020743BA460339
:1005500002073FBA4703020747BA4903020729BA0D
:100560004C02803BBA4E0302074BBA4F03020730DE
:10057000BA50030206C2BA5303020612BA55030266
:100580000735BA580302073A020775D2040204A3DA
:10059000D2060204A3D2070204A3D2090204A3D202
:1005A0000A0204A3D20B0204A374FFB52D20300964
:1005B0000BE53314F88833862C0204A3E53324FEBC
:1005C000F888338606088607188E2C0204A33009A3
:1005D0000BE53314F88833862D0204A3E53324FE9B
:1005E000F888338606088607188E2D0204A3300982
:1005F0000AE53314F888338602800FE53324FEF8C9
:1006000088338603088604188B028A821203C0028C
:10061000077AE53324FDF8883386030886040886C4
:100620000518188B248C258D268B828C838DF012D7
:100630000A2AAB82AC838B2E74FFB52D03852E2D39
:1006400020041DC3E52E952C5016E52CC3952EF5E0
:100650002CAB2C152CEB60087582201203C080F1A6
:100660008524828525838526F01209F5FBFA602909
:10067000AB2D152DC3E464808BF063F08095F050B2
:10068000188A821203C0AB24AC25AD260BBB000137
:100690000C8B248C258D2680C720040302077AC387
:1006A000E52E952C400302077AE52CC3952EF52CF8
:1006B000AB2C152CEB700302077A7582201203C055
:1006C00080EEE53324FDF888338603088604088627
:1006D0000518188B248C258D26E526FB30E7047A37
:1006E000438013EB546060047A50800AEB30E604D8
:1006F0007A4980027A588A82C0021203C075823A0F
:100700001203C07582301203C07582781203C0D004
:1007100002BA4902800BBA50028006852582120374
:10072000F38524821203F38051D208752B0A804A84
:10073000752B088045752B0A8040752B10803BD2A5
:10074000018037D2028033D203802FE53324FDF8B5
:100750008833860308860408860518188B248C25A0
:100760008D268B828C838DF0E529120A11A3E52A50
:10077000120A1180058A821203C02001062002039A
:1007800030035AE53324FCF88833860308860408CE
:1007900086050886061818188B248C258D268E272A
:1007A0007524307525017526808524348525358589
:1007B000263674012534FEE43535FFAB368E248FA2
:1007C000258B268534828535838536F01209F5FB25
:1007D000FA70030204548A821203C080CCE52B70A5
:1007E000030204547B1430092BE53314F88833E6F4
:1007F000FC3395E0FDFEFF8C248D258E268F27206F
:10080000085EAC247D007E007F008C248D258E2622
:100810008F27804C300A1FE53324FCF88833860488
:100820000886050886060886071818188C248D2562
:100830008E268F27802AE53324FEF8883386040825
:10084000860518ED3395E0FEFF8C248D258E268FCE
:100850002720080CAC24AD257E007F008E268F2734
:10086000300B43E52445254526452760397408B5F6
:100870002B0C758230C0031203C0D0038028741083
:10088000B52B23758230C0031203C0D00330000C97
:10089000758278C0031203C0D003800A758258C0E5
:1008A000031203C0D003300825AC24AD25AE26E5E5
:1008B00027FF30E717C3E49CFCE49DFDE49EFEE4C3
:1008C0009FFF8C248D258E268F278002C208752ECF
:1008D00000D20C8B00752800C00012040AD0002042
:1008E0000C0DE528C4FCE6FD4CF61888038002A632
:1008F00028052EB20CE52445254526452770D688C7
:1009000003E52C7003752C0120051A200417E52E31
:1009100004FCC3952C500E758220C0031203C0D076
:1009200003152C80E930080E75822DC0031203C018
:10093000D003152C8024E52E602030060E75822B06
:10094000C0031203C0D003152C800F30070C758232
:1009500020C0031203C0D003152C20041EAC2C159C
:100960002CC3E52E9C50273005047C3080027C206F
:100970008C82C0031203C0D00380E2C3E52E952C05
:100980005009E52CC3952EF52C8003752C008B00A7
:10099000AB2E152EEB6022B20C200C0A08E6C454D4
:1009A0000FFB8B2880078603740F5BF52885288250
:1009B000C0001203DAD00080D7200403020454AB35
:1009C0002C152CEB70030204547582201203C08096
:1009D000EE8A821203C0020454852982852A83226A
:1009E000AA82BA0A0810990280FB75990D10990223
:1009F00080FB8A992220F71430F6148883A882207D
:100A0000F507E6A88375830022E280F7E49322E0ED
:100A10002220F71030F6118883A88220F507F6A867
:100A20008375830022F280F7F022AA82AB83ACF0B8
:100A30007D007E008A828B838CF01209F5FFA3AAC9
:100A400082AB83EF60070DBD00EA0E80E78D828EDA
:100A500083220000000000000000000000000000F1
:00000001FF
