:1000000002002E220000000000000000000000009E
:100020000000000000000000000000020171758166
:100030003B12009FE582600302009A780079007A03
:10004000007B007C007D00EC4D601C88828983E48D
:1000500093A3A882A9838A828B83F0A3AA82AB830D
:100060001CBCFFE31D80E07582007583007C007D71
:1000700000EC4D600AE4F0A31CBCFFF51D80F27596
:1000800082007583007C007D00EC4D600AE4F0A3E3
:100090001CBCFFF51D80F212000312039F80FE7549
:1000A000A7007597DE7597AD43FF8075EF0275A7C2
:1000B0001075C12075A70075A90075A900E5A930C4
:1000C000E7FB75A90375A903E5A930E7FB43A60380
:1000D00043A41075E10175E21075E3407598108531
:1000E0008E8E758DE6858D8B53890F438920D28E38
:1000F000D29975C800438E1075CAEE75CBF675CED1
:10010000FF75CFFFD2ADD2CAD2AF75820022AA82CC
:10011000438E407592B87593FF859294859395753B
:1001200091047B00C3EB9A5012E59130E7FB5391A9
:100130007F108D02800205210B80E975910022AAB3
:1001400082AB83BA0004BB0001227582F9C002C0F1
:100150000312010E7582F912010E7582F912010E59
:100160007582FA12010ED003D0021ABAFF011B8069
:10017000D2C0D075D000C2CFB2A0A2A0B392A1D0FD
:10018000D03275A70075B28075BCF875B91E75E8D8
:100190000075DF3F75B300D2EF22AA828508F00513
:1001A000F07401800225E0D5F0FBFB75A720BA00B2
:1001B00002800ABA0102800FBA021E8014EBF4FA20
:1001C00052F1EB42D48012EBF4FA52F2EB42D580BA
:1001D00008EBF4FA52F3EB42CC75A700228582BB00
:1001E000D2EC20ECFDD2EC20ECFD85BD8285BE83F7
:1001F000221201DD120E46AA82AB83ACF0FDC002D2
:10020000C003C004C005906C8B75F0537440120F8E
:1002100033AA82AB83ACF0FDE58124FCF581E4C018
:10022000E074FCC0E0747FC0E07446C0E08A828B5A
:10023000838CF0ED121017AA82AB83ACF0FDE58140
:1002400024FCF5818A828B838CF0ED22C2CA900057
:100250000502013FD2CA90000502013FAA82AB838A
:10026000C3EA9408EB64809480400DC002C003127E
:100270000254D003D002800BC002C00312024CD043
:1002800003D002750808E4F5098A828B83C002C096
:1002900003120FD6AC82AD83D003D002C3EC94041A
:1002A000ED64809480400DC002C003120254D0035C
:1002B000D002800BC002C00312024CD003D00275E2
:1002C0000804E4F5098A828B83C002C003120FD6AA
:1002D000AC82AD83D003D002C3EC9402ED64809471
:1002E00080400DC002C003120254D003D002800B24
:1002F000C002C00312024CD003D002750802E4F51C
:10030000098A828B83120FD6AA82AB83C3EA940137
:10031000EB64809480400302025402024CAA82AB38
:1003200083C002C00312025412025412024CD003C2
:10033000D002C3E49524E464808525F063F08095C1
:10034000F0500E12025485248285258312025C80AF
:1003500012C002C00312024CD003D0028A828B83E7
:1003600012025CC3E49526E464808527F063F08084
:1003700095F0500E12025485268285278312025C66
:10038000800C12024C85228285238312025C1202A9
:100390004C12024C120254C2CA90005002013FE4B7
:1003A000F52CF52DF52EF52FF530F531F532F53329
:1003B00012018275080175820012019A7508027592
:1003C000820012019A75CAEE75CBF6C2CA75820018
:1003D0001201F185822885832985F02AF52B758203
:1003E000011201F1AC82AD83AAF0FBC002C003C0D0
:1003F00004C005743DC0E0740AC0E074D7C0E07466
:100400003FC0E0852882852983852AF0E52B120EDE
:1004100052AE82E58124FCF581D005D004D003D012
:1004200002EE7003020541C002C003C004C005C053
:100430000674CDC0E074CCC0E0C0E0743FC0E08C76
:10044000828D838AF0EB120E52AF82E58124FCF597
:1004500081D006D005D004D003D002EF700302058E
:1004600041E4F52CF52DF52EF52F748FC0E074C204
:10047000C0E074D5C0E0743FC0E085288285298340
:10048000852AF0E52B12100C85823485833585F0A2
:1004900036F537E58124FCF581748FC0E074C2C065
:1004A000E074D5C0E0743FC0E08534828535838533
:1004B00036F0E53712101785823485833585F0369E
:1004C000F537E58124FCF581C034C035C036C0372E
:1004D00090000075F0207441120F338582348583BB
:1004E0003585F036F537E58124FCF5818534828544
:1004F00035838536F0E537120ECF8582308583311E
:10050000E4C0E0C0E0C0E07440C0E08534828535DE
:10051000838536F0E537121017858234858335855B
:10052000F036F537E58124FCF58185348285358305
:100530008536F0E537120ECF858232858333020D82
:10054000E8EE7003020663C002C003C004C005C029
:10055000067471C0E0743DC0E074CAC0E0743FC06E
:10056000E08C828D838AF0EB120F03AF82E5812449
:10057000FCF581D006D005D004D003D002EF700383
:10058000020663E4F52CF52DF52EF52F748FC0E0EF
:1005900074C2C0E074D5C0E0743FC0E08528828595
:1005A0002983852AF0E52B12100C8582348583354A
:1005B00085F036F537E58124FCF581748FC0E07451
:1005C000C2C0E074D5C0E0743FC0E0853482853598
:1005D000838536F0E537121017858234858335859B
:1005E000F036F537E58124FCF581C034C035C036DE
:1005F000C03790000075F0207441120F33858234AB
:1006000085833585F036F537E58124FCF581E4C036
:10061000E0C0E0C0E07440C0E08534828535838569
:1006200036F0E53712101785823885833985F03A20
:10063000F53BE58124FCF581853882853983853A4F
:10064000F0E53B120ECF858230858331853482857B
:1006500035838536F0E537120ECF858232858333B8
:10066000020DE8EE700302076BC002C003C004C0B5
:10067000057471C0E0743DC0E074CAC0E0743FC04E
:10068000E08C828D838AF0EB120E52AE82E58124DB
:10069000FCF581D005D004D003D002EE7003020730
:1006A0006BC002C003C004C00574CDC0E074CCC0F0
:1006B000E0C0E0743FC0E08C828D838AF0EB120FC3
:1006C00003AE82E58124FCF581D005D004D003D0AF
:1006D00002EE700302076BE4F52CF52DF52EF52FD5
:1006E000748FC0E074C2C0E074D5C0E0743FC0E055
:1006F000852882852983852AF0E52B12100CAE828D
:10070000AF83A8F0F9E58124FCF581748FC0E07413
:10071000C2C0E074D5C0E0743FC0E08E828F838891
:10072000F0E9121017AE82AF83A8F0F9E58124FC3E
:10073000F581C006C007C000C00190000075F02020
:100740007441120F33AE82AF83A8F0F9E58124FC27
:10075000F5818E828F8388F0E9120ECFAE82AF834F
:100760008E308F318E328F33020DE8C002C003C04D
:1007700004C00574E1C0E0747AC0E074D4C0E074D1
:100780003FC0E0852882852983852AF0E52B120F5A
:1007900003AE82E58124FCF581D005D004D003D0DE
:1007A00002EE70030208B6C002C003C004C005C058
:1007B0000674CDC0E074CCC0E0C0E0743FC0E08CF3
:1007C000828D838AF0EB120E52AF82E58124FCF514
:1007D00081D006D005D004D003D002EF7003020808
:1007E000B6C028C029C02AC02B90C28F75F0D5741E
:1007F0003F12100C85823885833985F03AF53BE548
:100800008124FCF581748FC0E074C2C0E074D5C04F
:10081000E0743FC0E0853882853983853AF0E53B56
:1008200012101785823885833985F03AF53BE581CA
:1008300024FCF581C038C039C03AC03B9000007537
:10084000F0207441120F3385823885833985F03A60
:10085000F53BE58124FCF581853882853983853A2D
:10086000F0E53B120ECF85822C85832DE4C0E0C0DD
:10087000E0C0E07440C0E0853882853983853AF075
:10088000E53B12101785823885833985F03AF53BB0
:10089000E58124FCF581853882853983853AF0E548
:1008A0003B120ECF85822E85832FE4F530F531F58E
:1008B00032F533020DE8EE70030209CDC002C00329
:1008C000C004C005C0067471C0E0743DC0E074CAC5
:1008D000C0E0743FC0E08C828D838AF0EB120F037E
:1008E000AF82E58124FCF581D006D005D004D00389
:1008F000D002EF70030209CDC028C029C02AC02B46
:1009000090C28F75F0D5743F12100C8582388583A4
:100910003985F03AF53BE58124FCF581748FC0E020
:1009200074C2C0E074D5C0E0743FC0E085388285F1
:100930003983853AF0E53B12101785823885833973
:1009400085F03AF53BE58124FCF581C038C039C01B
:100950003AC03B90000075F0207441120F3385823D
:100960003885833985F03AF53BE58124FCF581E44F
:10097000C0E0C0E0C0E07440C0E0853882853983C3
:10098000853AF0E53B12101785823485833585F072
:1009900036F537E58124FCF58185348285358385FC
:1009A00036F0E537120ECF85822C85832D8538826F
:1009B000853983853AF0E53B120ECF85822E8583FB
:1009C0002FE4F530F531F532F533020DE8EE700322
:1009D000020ACAC002C003C004C0057471C0E0743A
:1009E0003DC0E074CAC0E0743FC0E08C828D838A51
:1009F000F0EB120E52AE82E58124FCF581D005D0D9
:100A000004D003D002EE7003020ACAC002C003C0C1
:100A100004C00574CDC0E074CCC0E0C0E0743FC039
:100A2000E08C828D838AF0EB120F03AE82E5812485
:100A3000FCF581D005D004D003D002EE7003020A89
:100A4000CAC028C029C02AC02B90C28F75F0D574A7
:100A50003F12100CAE82AF83A8F0F9E58124FCF5BB
:100A600081748FC0E074C2C0E074D5C0E0743FC030
:100A7000E08E828F8388F0E9121017AE82AF83A8D0
:100A8000F0F9E58124FCF581C006C007C000C00173
:100A900090000075F0207441120F33AE82AF83A82E
:100AA000F0F9E58124FCF5818E828F8388F0E912CC
:100AB0000ECFAE82AF838E2C8F2D8E2E8F2FE4F52E
:100AC00030F531F532F533020DE8C002C003C00441
:100AD000C005743DC0E0740AC0E074D7C0E0743F44
:100AE000C0E0852882852983852AF0E52B120F0333
:100AF000AE82E58124FCF581D005D004D003D0027C
:100B0000EE7003020C23C002C003C004C005C0067F
:100B100074E1C0E0747AC0E074D4C0E0743FC0E017
:100B2000852882852983852AF0E52B120E52AF8213
:100B3000E58124FCF581D006D005D004D003D00295
:100B4000EF7003020C23C002C003C004C005C0063E
:100B500074CDC0E074CCC0E0C0E0743FC0E08C82D3
:100B60008D838AF0EB120E52AF82E58124FCF58171
:100B7000D006D005D004D003D002EF7003020C23BE
:100B8000E4F52CF52DF52EF52F741FC0E07485C00B
:100B9000E074CBC0E0743FC0E08C828D838AF0EBC0
:100BA00012100C85823885833985F03AF53BE58152
:100BB00024FCF581741FC0E07485C0E074CBC0E0F4
:100BC000743FC0E0853882853983853AF0E53B1271
:100BD000101785823885833985F03AF53BE5812405
:100BE000FCF581C038C039C03AC03B90000075F0B8
:100BF000207441120F3385823885833985F03AF5A8
:100C00003BE58124FCF581853882853983853AF07E
:100C1000E53B120ECF858230858331E4F532F53322
:100C2000020DE8EE7003020D40C002C003C004C014
:100C300005C00674E1C0E0747AC0E074D4C0E0740A
:100C40003FC0E0852882852983852AF0E52B120E96
:100C500052AF82E58124FCF581D006D005D004D0C6
:100C600003D002EF7003020D40C002C003C004C0F5
:100C700005C0067471C0E0743DC0E074CAC0E07481
:100C80003FC0E08C828D838AF0EB120F03AF82E5C8
:100C90008124FCF581D006D005D004D003D002EF2A
:100CA0007003020D40E4F52CF52DF52EF52FF530EF
:100CB000F531C004C005C002C00390851F75F0CB9C
:100CC000743F12100C85823885833985F03AF53BE4
:100CD000E58124FCF581741FC0E07485C0E074CB0D
:100CE000C0E0743FC0E0853882853983853AF0E5FD
:100CF0003B12101785823885833985F03AF53BE53C
:100D00008124FCF581C038C039C03AC03B90000056
:100D100075F0207441120F3385823885833985F050
:100D20003AF53BE58124FCF5818538828539838558
:100D30003AF0E53B120ECF858232858333020DE80F
:100D4000EE7003020DE8C002C003C004C00574E1E8
:100D5000C0E0747AC0E074D4C0E0743FC0E085287D
:100D600082852983852AF0E52B120E52AE82E58119
:100D700024FCF581D005D004D003D002EE6069C018
:100D800002C003C004C0057471C0E0743DC0E074CB
:100D9000CAC0E0743FC0E08C828D838AF0EB120EF3
:100DA00052AE82E58124FCF581D005D004D003D079
:100DB00002EE603474CDC0E074CCC0E0C0E0743F9B
:100DC000C0E08C828D838AF0EB120F03AA82E5814A
:100DD00024FCF581EA6011E4F52CF52DF52EF52FB4
:100DE000F530F531F532F533C3740A952CE4952DC1
:100DF0005006752C0AE4F52DC3740A952EE4952F40
:100E00005006752E0AE4F52FC3740A9530E4953127
:100E1000500675300AE4F531C3740A9532E495330F
:100E2000500675320AE4F533852E22852F2385304E
:100E300024853125853226853327852C82852D838F
:100E400012031D0203CDE4AC83AB82FAF9748E0267
:100E5000113FFFA8811818121167D2D133E640075D
:100E600030E70B7582012220E70675820022C2D18D
:100E7000121149E97003F5822230D101B3E433F550
:100E80008222E508450960467A01E50825E0F50873
:100E9000E509334012F509E5829508E58395094097
:100EA000030A80E6C3E50913F509E50813F508C34D
:100EB000E5829508F5F0E58395094005F58385F011
:100EC00082C3E50913F509E50813F508DAE12212F2
:100ED0001192700AE582458345F0700122E430D119
:100EE00012F4700BE5F0F47006E58330E701229010
:100EF000800022700AE5F07006E58320E701229069
:100F00007FFF22FFA8811818121167D2D133E64063
:100F10000730E70B7582002220E70675820122C2A6
:100F2000D1121149E97003F5822220D101B3E433D3
:100F3000F5822212126FBC000302120EEF60FA302B
:100F4000D502B2D1E583B4FF03021224E582B4FFD7
:100F500003021224258340072482400B02120E2430
:100F600083145003021224F582EA8DF0A4A8F0EA5B
:100F70008EF0A428F8E435F0F9EB8DF0A428E935DB
:100F8000F0F9E433CA8FF0A429F9EA35F0FAEBF866
:100F90008EF0A429F9EA35F0FAE433FBEC8DF0A4E5
:100FA00029F9EA35F0FAE43BFBE88FF0A42AFAEBE2
:100FB00035F0FBE433CCFD8EF0A42AFAEB35F0FBE0
:100FC000E43CFCED8FF0A42BFBEC35F0FC20E703B8
:100FD00012123C0211EDC2D5E58330E70DD2D5E403
:100FE000C39582F582E49583F583E50930E70BE448
:100FF000C39508F508E49509F509120E8230D50B62
:10100000E4C39582F582E49583F58322A8811818BC
:10101000C6B2E7C602129D12126F30D502B2D1BF1E
:101020000009BC0003021231021224BC00030212A8
:101030000EE583B4FF0BE582B4FF03021231021206
:101040000EE582B4FF03021224C395835007247F68
:10105000400B02120E2480145003021224C0E0E45C
:10106000CCCBCAF98D088E098F0AEF54F0C4F50B6A
:10107000758306850BF0EB84F582E9C4F9EAC4FABE
:10108000EBC4FBEC540FC47803D6FC18EBD6FB186A
:10109000EAD6FA8582F0EDA4A8F0FD8582F0EEA4F0
:1010A00028FEE435F0F88582F0EFA428FFE435F05F
:1010B000F8E99DF9EA9EFAEB9FFBEC98FCAD08AECF
:1010C00009AF0A30E7101582E92DF9EA3EFAEB3F45
:1010D000FBE43CFC80EDC082D58398C3E933F9EA98
:1010E00033FAEB33FBEC33FCC3E99DEA9EEB9FEC58
:1010F0009400B3E413F9D002D0E0C44AFAD003D08C
:10110000E0C44BFBD004D0E0F5F0540FC44CFCD04D
:1011100082158230F40FD3EC13FCEB13FBEA13FAC5
:10112000E913F90582E930E70A74012AFAE43BFB86
:10113000E43CFC021205FCABF0AA83A982749EC2B7
:10114000D1F58212123C0211ED7901AA82E68F825A
:10115000B5821318E6B5F00E18E6B5830918E68ACD
:1011600082B58202790022B4800FE5F0700AE5832F
:101170007006E58270027F00EFB6801518B6001089
:1011800018B6000B18B600060808087600220808F2
:1011900008221212F6C3749E958240397900121308
:1011A0000830D126E9F42401F582EAF43400F5830D
:1011B000EBF43400F5F0ECF43400700AE58245837A
:1011C00045F0700122E430E70F22EC20E714898219
:1011D0008A838BF02230D10AE4F582F583F5F0742E
:1011E000802274FFF582F583F5F0747F22B98003C5
:1011F000EA13B34010EA2401FAE43BFBE43CFC5060
:10120000047C800582BC000EBB000BBA0008E4F52C
:10121000F0F583F58222A2D1E582138CF092F78B50
:10122000838A8222E4F583F58275F080F4A2D113DB
:1012300022E4F583F58275F0C0747F227804EC70A7
:1012400011E58224F8500AF582E4C9CACBFCD8EF34
:1012500022EC7820058220E713D5820122C3E933EE
:10126000F9EA33FAEB33FBEC33FCD8EA158222AA15
:1012700082AB83A2F73392D16002D2F7F582ACF051
:10128000E58124F9F8E6FD08E6FE0886F008E6A206
:10129000F73392D56002D2F7F583AFF02212126FC6
:1012A0007900E583B58202800D500312134BE5836C
:1012B000C39582121308E5D0C465D020E117EA2D4A
:1012C000FAEB3EFBEC3FFC50097401121308EC44AE
:1012D00080FC0211EDC3EA9DFAEB9EFBEC9FFC50F3
:1012E0000FC3E499F9E49AFAE49BFBE49CFCB2D1C5
:1012F00012123C0211EDAA82AB83A2F73392D160A5
:1013000002D2F7F582ACF0226040F82582500274D8
:10131000FFF582E824F8501ECCCBCAF9E4CC24F8BF
:101320005014CBCAF9E4CB24F8500BCAF9E4CA2410
:10133000F8500379002224086010F8C3EC13FCEB8A
:1013400013FBEA13FAE913F9D8F122E582C583F514
:1013500082A2D133A2D592D11392D5ECCFFCEBCEA1
:10136000FBEACDFA220000000000000000000000AF
:00000001FF
