:1000000002002E220000000000000000000000009E
:100020000000000000000000000000020177758160
:100030003D12009FE582600302009A780079007A01
:10004000007B007C007D00EC4D601C88828983E48D
:1000500093A3A882A9838A828B83F0A3AA82AB830D
:100060001CBCFFE31D80E07582007583007C007D71
:1000700000EC4D600AE4F0A31CBCFFF51D80F27596
:1000800082007583007C007D00EC4D600AE4F0A3E3
:100090001CBCFFF51D80F21200031202E180FE7508
:1000A000A7007597DE7597AD43FF8075EF0275A7C2
:1000B0001075C12075A70075A90075A900E5A930C4
:1000C000E7FB75A90375A903E5A930E7FB75A41D36
:1000D00075E10375E20075E340759810858E8E75A5
:1000E0008DE6858D8B53890F438920D28ED29975E9
:1000F000C800438E1075CAEE75CBF675CEFF75CF6E
:10010000FFD2ADD2CAD2AF75A22375A14075F80156
:1001100075820022AA82438E407592B87593FF853E
:1001200092948593957591047B00C3EB9A5012E5E8
:100130009130E7FB53917F108D02800205210B80E7
:10014000E975910022AA82AB83BA0004BB000122A8
:100150007582F9C002C0031201147582F9120114EC
:100160007582F91201147582FA120114D003D002BB
:100170001ABAFF011B80D2C0D075D000C2CFB2A086
:10018000A2A0B392A1D0D032AA82C2838AA310FFC8
:100190000280FBD2832275A70075B28075BCF8750A
:1001A000B91E75E80075DF3F75B300D2EF22AA8251
:1001B0008508F005F07401800225E0D5F0FBFB75A1
:1001C000A720BA0002800ABA0102800FBA021E807C
:1001D00014EBF4FA52F1EB42D48012EBF4FA52F23F
:1001E000EB42D58008EBF4FA52F3EB42CC75A70052
:1001F000228582BBD2EC20ECFDD2EC20ECFD85BD4B
:100200008285BE83221201F1120E7AAA82AB83ACE0
:10021000F0FDC002C003C004C005906C8B75F053A4
:100220007440120F67AA82AB83ACF0FDE58124FC19
:10023000F581E4C0E074FCC0E0747FC0E07446C0A7
:10024000E08A828B838CF0ED1210A4AA82AB83AC7F
:10025000F0FDE58124FCF5818A828B838CF0ED2210
:10026000C3E49524E464808525F063F08095F05024
:100270001E750802E4F50985248285258312106322
:10028000AA82AB83C3EA9401EB64809480E433C315
:10029000E49526E464808527F063F08095F0501E95
:1002A000750802E4F509852682852783121063AA62
:1002B00082AB83C3EA9401EB64809480E43375825B
:1002C0002012018875820A1201887582A0120188A5
:1002D000758262120188D2A07582FA120114C2A03E
:1002E00022E4F52EF52FF530F531F532F533F534FE
:1002F000F535D283C2A012019675080175820012ED
:1003000001AE7508027582001201AE75CAEE75CB9A
:10031000F6C2CA75820012020585822A85832B8562
:10032000F02CF52D758201120205AC82AD83AAF086
:10033000FBC002C003C004C005743DC0E0740AC025
:10034000E074D7C0E0743FC0E0852A82852B8385A6
:100350002CF0E52D120E86AE82E58124FCF581D0CD
:1003600005D004D003D002EE70030204BBC002C06B
:1003700003C004C005C00674CDC0E074CCC0E0C0AA
:10038000E0743FC0E08C828D838AF0EB120E86AF62
:1003900082E58124FCF581D006D005D004D003D0BD
:1003A00002EF70030204BBE4F52EF52FF530F531B2
:1003B000748FC0E074C2C0E074D5C0E0743FC0E088
:1003C000852A82852B83852CF0E52D121099858254
:1003D0003685833785F038F539E58124FCF581745D
:1003E0008FC0E074C2C0E074D5C0E0743FC0E08547
:1003F00036828537838538F0E5391210A485823638
:1004000085833785F038F539E58124FCF581C036E0
:10041000C037C038C03990000075F0207441120F09
:100420006785823685833785F038F539E58124FC88
:10043000F5818536828537838538F0E539120F03DB
:10044000E5828583F02401F532E435F0F533E4C02C
:10045000E0C0E07480C0E0743FC0E085368285373C
:10046000838538F0E53912100A8582368583378511
:10047000F038F539E58124FCF581E4C0E0C0E0C046
:10048000E07440C0E08536828537838538F0E539F1
:100490001210A485823685833785F038F539E581D9
:1004A00024FCF5818536828537838538F0E539125D
:1004B0000F03858234858335020E16EE7003020623
:1004C00011C002C003C004C005C0067471C0E0744E
:1004D0003DC0E074CAC0E0743FC0E08C828D838A66
:1004E000F0EB120F37AF82E58124FCF581D006D006
:1004F00005D004D003D002EF7003020611E4F52EFC
:10050000F52FF530F531748FC0E074C2C0E074D5BA
:10051000C0E0743FC0E0852A82852B83852CF0E5FE
:100520002D12109985823685833785F038F539E5A7
:100530008124FCF581748FC0E074C2C0E074D5C022
:10054000E0743FC0E08536828537838538F0E53931
:100550001210A485823685833785F038F539E58118
:1005600024FCF581C036C037C038C0399000007512
:10057000F0207441120F6785823685833785F03805
:10058000F539E58124FCF581E4C0E0C0E07480C069
:10059000E0743FC0E08536828537838538F0E539E1
:1005A00012100A85823A85833B85F03CF53DE58152
:1005B00024FCF581E4C0E0C0E0C0E07440C0E08508
:1005C0003A82853B83853CF0E53D1210A485823A52
:1005D00085833B85F03CF53DE58124FCF581853A3A
:1005E00082853B83853CF0E53D120F038582328591
:1005F00083338536828537838538F0E539120F03DA
:10060000E5828583F02401F534E435F0F535020EFA
:1006100016EE7003020721C002C003C004C00574B7
:1006200071C0E0743DC0E074CAC0E0743FC0E08CAB
:10063000828D838AF0EB120E86AE82E58124FCF572
:1006400081D005D004D003D002EE7003020721C090
:1006500002C003C004C00574CDC0E074CCC0E0C0CB
:10066000E0743FC0E08C828D838AF0EB120F37AECE
:1006700082E58124FCF581D005D004D003D002EEC0
:100680007003020721E4F52EF52FF530F531748F54
:10069000C0E074C2C0E074D5C0E0743FC0E0852AF9
:1006A00082852B83852CF0E52D121099AE82AF83C5
:1006B000A8F0F9E58124FCF581748FC0E074C2C014
:1006C000E074D5C0E0743FC0E08E828F8388F0E98B
:1006D0001210A4AE82AF83A8F0F9E58124FCF58165
:1006E000C006C007C000C00190000075F020744132
:1006F000120F67AE82AF83A8F0F9E58124FCF58183
:100700008E828F8388F0E9120F03E5828583F024BF
:1007100001FEE435F0FF8E328F338E348F35020EBA
:1007200016C002C003C004C00574E1C0E0747AC002
:10073000E074D4C0E0743FC0E0852A82852B8385B5
:100740002CF0E52D120F37AE82E58124FCF581D027
:1007500005D004D003D002EE70030208A0C002C08E
:1007600003C004C005C00674CDC0E074CCC0E0C0B6
:10077000E0743FC0E08C828D838AF0EB120E86AF6E
:1007800082E58124FCF581D006D005D004D003D0C9
:1007900002EF70030208A0C02AC02BC02CC02D900D
:1007A000C28F75F0D5743F12109985823A85833BCC
:1007B00085F03CF53DE58124FCF581748FC0E07443
:1007C000C2C0E074D5C0E0743FC0E0853A82853B8A
:1007D00083853CF0E53D1210A485823A85833B85F4
:1007E000F03CF53DE58124FCF581C03AC03BC03CBE
:1007F000C03D90000075F0207441120F6785823A69
:1008000085833B85F03CF53DE58124FCF581853A07
:1008100082853B83853CF0E53D120F03E5828583AD
:10082000F02401F52EE435F0F52FE4C0E0C0E074CB
:1008300080C0E0743FC0E0853A82853B83853CF010
:10084000E53D12100A85823A85833B85F03CF53DF3
:10085000E58124FCF581E4C0E0C0E0C0E07440C064
:10086000E0853A82853B83853CF0E53D1210A48506
:10087000823A85833B85F03CF53DE58124FCF5819A
:10088000853A82853B83853CF0E53D120F038582E6
:1008900030858331E4F532F533F534F535020E1643
:1008A000EE70030209EBC002C003C004C005C0061D
:1008B0007471C0E0743DC0E074CAC0E0743FC0E031
:1008C0008C828D838AF0EB120F37AF82E58124FC96
:1008D000F581D006D005D004D003D002EF7003021A
:1008E00009EBC02AC02BC02CC02D90C28F75F0D54B
:1008F000743F12109985823A85833B85F03CF53D23
:10090000E58124FCF581748FC0E074C2C0E074D529
:10091000C0E0743FC0E0853A82853B83853CF0E5CA
:100920003D1210A485823A85833B85F03CF53DE578
:100930008124FCF581C03AC03BC03CC03D90000022
:1009400075F0207441120F6785823A85833B85F0EC
:100950003CF53DE58124FCF581E4C0E0C0E0748015
:10096000C0E0743FC0E0853A82853B83853CF0E57A
:100970003D12100A85823685833785F038F539E5D2
:100980008124FCF581E4C0E0C0E0C0E07440C0E038
:100990008536828537838538F0E5391210A4858243
:1009A0003685833785F038F539E58124FCF5818576
:1009B00036828537838538F0E539120F0385822E1C
:1009C00085832F853A82853B83853CF0E53D120F78
:1009D00003E5828583F02401F530E435F0F531E458
:1009E000F532F533F534F535020E16EE7003020AD2
:1009F000F0C002C003C004C0057471C0E0743DC003
:100A0000E074CAC0E0743FC0E08C828D838AF0EB52
:100A1000120E86AE82E58124FCF581D005D004D08B
:100A200003D002EE7003020AF0C002C003C004C08B
:100A30000574CDC0E074CCC0E0C0E0743FC0E08C71
:100A4000828D838AF0EB120F37AE82E58124FCF5AC
:100A500081D005D004D003D002EE7003020AF0C0AA
:100A60002AC02BC02CC02D90C28F75F0D5743F12B8
:100A70001099AE82AF83A8F0F9E58124FCF581746A
:100A80008FC0E074C2C0E074D5C0E0743FC0E08E97
:100A9000828F8388F0E91210A4AE82AF83A8F0F9A8
:100AA000E58124FCF581C006C007C000C0019000AC
:100AB0000075F0207441120F67AE82AF83A8F0F981
:100AC000E58124FCF5818E828F8388F0E9120F0383
:100AD000E5828583F02401FEE435F0FF8E2E8F2F12
:100AE0008E308F31E4F532F533F534F535020E16DC
:100AF000C002C003C004C005743DC0E0740AC0E079
:100B000074D7C0E0743FC0E0852A82852B83852C92
:100B1000F0E52D120F37AE82E58124FCF581D0057A
:100B2000D004D003D002EE7003020C49C002C0030F
:100B3000C004C005C00674E1C0E0747AC0E074D49B
:100B4000C0E0743FC0E0852A82852B83852CF0E5C8
:100B50002D120E86AF82E58124FCF581D006D005EA
:100B6000D004D003D002EF7003020C49C002C003CE
:100B7000C004C005C00674CDC0E074CCC0E0C0E0C5
:100B8000743FC0E08C828D838AF0EB120E86AF82B8
:100B9000E58124FCF581D006D005D004D003D00235
:100BA000EF7003020C49E4F52EF52FF530F53174A2
:100BB0001FC0E07485C0E074CBC0E0743FC0E08C1F
:100BC000828D838AF0EB12109985823A85833B856A
:100BD000F03CF53DE58124FCF581741FC0E074858F
:100BE000C0E074CBC0E0743FC0E0853A82853B83AF
:100BF000853CF0E53D1210A485823A85833B85F063
:100C00003CF53DE58124FCF581C03AC03BC03CC0C9
:100C10003D90000075F0207441120F6785823A857F
:100C2000833B85F03CF53DE58124FCF581853A82E6
:100C3000853B83853CF0E53D120F03858232858339
:100C400033E4F534F535020E16EE7003020D6EC076
:100C500002C003C004C005C00674E1C0E0747AC0DD
:100C6000E074D4C0E0743FC0E0852A82852B838580
:100C70002CF0E52D120E86AF82E58124FCF581D0A3
:100C800006D005D004D003D002EF7003020D6EC071
:100C900002C003C004C005C0067471C0E0743DC04A
:100CA000E074CAC0E0743FC0E08C828D838AF0EBB0
:100CB000120F37AF82E58124FCF581D006D005D034
:100CC00004D003D002EF7003020D6EE4F52EF52F71
:100CD000F530F531F532F533C004C005C002C0036C
:100CE00090851F75F0CB743F12109985823A8583E9
:100CF0003B85F03CF53DE58124FCF581741FC0E0A7
:100D00007485C0E074CBC0E0743FC0E0853A828552
:100D10003B83853CF0E53D1210A485823A85833BF8
:100D200085F03CF53DE58124FCF581C03AC03BC02F
:100D30003CC03D90000075F0207441120F67858221
:100D40003A85833B85F03CF53DE58124FCF58185C2
:100D50003A82853B83853CF0E53D120F03E58285B1
:100D600083F02401F534E435F0F535020E16EE700B
:100D700003020E16C002C003C004C00574E1C0E047
:100D8000747AC0E074D4C0E0743FC0E0852A8285E4
:100D90002B83852CF0E52D120E86AE82E58124FC96
:100DA000F581D005D004D003D002EE6069C002C046
:100DB00003C004C0057471C0E0743DC0E074CAC0D3
:100DC000E0743FC0E08C828D838AF0EB120E86AE19
:100DD00082E58124FCF581D005D004D003D002EE59
:100DE000603474CDC0E074CCC0E0C0E0743FC0E0BB
:100DF0008C828D838AF0EB120F37AA82E58124FC66
:100E0000F581EA6011E4F52EF52FF530F531F53274
:100E1000F533F534F535C3740A952EE4952F500655
:100E2000752E0AE4F52FC3740A9530E49531500607
:100E300075300AE4F531C3740A9532E495335006EF
:100E400075320AE4F533C3740A9534E495355006D7
:100E500075340AE4F53585302285312385322485C1
:100E600033258534268535277528C0752901852EBB
:100E700082852F83120260020313E4AC83AB82FAF3
:100E8000F9748E0211CCFFA88118181211F4D2D176
:100E900033E6400730E70B7582012220E7067582B2
:100EA0000022C2D11211D6E97003F5822230D1019D
:100EB000B3E433F58222E508450960467A01E50886
:100EC00025E0F508E509334012F509E5829508E5C6
:100ED00083950940030A80E6C3E50913F509E5088F
:100EE00013F508C3E5829508F5F0E58395094005FB
:100EF000F58385F082C3E50913F509E50813F508C4
:100F0000DAE12212121F700AE582458345F0700172
:100F100022E430D112F4700BE5F0F47006E5833072
:100F2000E7012290800022700AE5F07006E5832038
:100F3000E70122907FFF22FFA88118181211F4D236
:100F4000D133E6400730E70B7582002220E70675B3
:100F5000820122C2D11211D6E97003F5822220D17A
:100F600001B3E433F582221212FCBC000302129B8F
:100F7000EF60FA30D502B2D1E583B4FF030212B1BB
:100F8000E582B4FF030212B1258340072482400B9F
:100F900002129B24831450030212B1F582EA8DF0F1
:100FA000A4A8F0EA8EF0A428F8E435F0F9EB8DF06F
:100FB000A428E935F0F9E433CA8FF0A429F9EA3519
:100FC000F0FAEBF88EF0A429F9EA35F0FAE433FBF5
:100FD000EC8DF0A429F9EA35F0FAE43BFBE88FF058
:100FE000A42AFAEB35F0FBE433CCFD8EF0A42AFA08
:100FF000EB35F0FBE43CFCED8FF0A42BFBEC35F083
:10100000FC20E7031212C902127A1212FC7900E5E1
:1010100083B58202800D500312132AE583C39582A3
:10102000121344E5D0C465D020E117EA2DFAEB3E57
:10103000FBEC3FFC50097401121344EC4480FC02A9
:10104000127AC3EA9DFAEB9EFBEC9FFC500FC3E4BF
:1010500099F9E49AFAE49BFBE49CFCB2D11212C920
:1010600002127AC2D5E58330E70DD2D5E4C395826A
:10107000F582E49583F583E50930E70BE4C3950831
:10108000F508E49509F509120EB630D50BE4C395C1
:1010900082F582E49583F58322A8811818C6B2E709
:1010A000C602100A1212FC30D502B2D1BF0009BC30
:1010B00000030212BE0212B1BC000302129BE583C0
:1010C000B4FF0BE582B4FF030212BE02129BE5825D
:1010D000B4FF030212B1C395835007247F400B0273
:1010E000129B24801450030212B1C0E0E4CCCBCA9E
:1010F000F98D088E098F0AEF54F0C4F50B7583063D
:10110000850BF0EB84F582E9C4F9EAC4FAEBC4FB81
:10111000EC540FC47803D6FC18EBD6FB18EAD6FAC9
:101120008582F0EDA4A8F0FD8582F0EEA428FEE40F
:1011300035F0F88582F0EFA428FFE435F0F8E99D5A
:10114000F9EA9EFAEB9FFBEC98FCAD08AE09AF0AFA
:1011500030E7101582E92DF9EA3EFAEB3FFBE43C5B
:10116000FC80EDC082D58398C3E933F9EA33FAEB0A
:1011700033FBEC33FCC3E99DEA9EEB9FEC9400B398
:10118000E413F9D002D0E0C44AFAD003D0E0C44B53
:10119000FBD004D0E0F5F0540FC44CFCD082158293
:1011A00030F40FD3EC13FCEB13FBEA13FAE913F959
:1011B0000582E930E70A74012AFAE43BFBE43CFCCF
:1011C000021292FCABF0AA83A982749EC2D1F5826E
:1011D0001212C902127A7901AA82E68F82B58213AD
:1011E00018E6B5F00E18E6B5830918E68A82B582CE
:1011F00002790022B4800FE5F0700AE5837006E5FD
:101200008270027F00EFB6801518B6001018B60085
:101210000B18B600060808087600220808082212F3
:101220001387C3749E95824039790012134430D1DC
:1012300026E9F42401F582EAF43400F583EBF43472
:1012400000F5F0ECF43400700AE582458345F07057
:101250000122E430E70F22EC20E71489828A838B95
:10126000F02230D10AE4F582F583F5F0748022741F
:10127000FFF582F583F5F0747F22B98003EA13B39A
:101280004010EA2401FAE43BFBE43CFC50047C807F
:101290000582BC000EBB000BBA0008E4F5F0F58334
:1012A000F58222A2D1E582138CF092F78B838A8299
:1012B00022E4F583F58275F080F4A2D11322E4F5DF
:1012C00083F58275F0C0747F227804EC7011E5829A
:1012D00024F8500AF582E4C9CACBFCD8EF22EC7896
:1012E00020058220E713D5820122C3E933F9EA33CE
:1012F000FAEB33FBEC33FCD8EA158222AA82AB83EB
:10130000A2F73392D16002D2F7F582ACF0E58124E6
:10131000F9F8E6FD08E6FE0886F008E6A2F7339243
:10132000D56002D2F7F583AFF022E582C583F5825E
:10133000A2D133A2D592D11392D5ECCFFCEBCEFB48
:10134000EACDFA226040F82582500274FFF582E867
:1013500024F8501ECCCBCAF9E4CC24F85014CBCAE4
:10136000F9E4CB24F8500BCAF9E4CA24F850037905
:10137000002224086010F8C3EC13FCEB13FBEA1303
:10138000FAE913F9D8F122AA82AB83A2F73392D1FA
:101390006002D2F7F582ACF02200000000000000ED
:00000001FF
